:020000040800F2
:1000000000000220B9020008C1020008C502000871
:10001000DD020008E1020008F9020008000000000B
:1000200000000000000000000000000011030008B4
:10003000150300080000000019030008A11E0008B5
:100040002D0300082D0300082D0300082D030008D0
:100050002D0300082D0300082D0300082D030008C0
:100060002D0300082D0300082D0300082D030008B0
:100070002D0300082D0300082D0300082D030008A0
:100080002D0300082D0300082D0300082D03000890
:100090002D0300082D0300082D0300082D03000880
:1000A0002D0300082D0300082D0300082D03000870
:1000B0002D0300082D030008DD1D00082D03000896
:1000C0002D0300082D0300082D0300082D03000850
:1000D0002D0300082D0300082D0300082D03000840
:1000E0002D0300082D0300082D0300082D03000830
:1000F0002D0300082D0300082D0300082D03000820
:100100002D0300082D0300082D0300082D0300080F
:100110002D0300082D0300082D0300082D030008FF
:100120002D0300082D0300082D0300082D030008EF
:100130002D0300082D0300082D0300082D030008DF
:100140002D0300082D0300082D0300082D030008CF
:100150002D0300082D0300082D0300082D030008BF
:100160002D0300082D0300082D0300082D030008AF
:100170002D0300082D0300082D0300082D0300089F
:100180002D0300082D03000800B583B001F0E6FC44
:10019000384B394A1360394A136039490CE00A6810
:1001A0004B6801F10C04886803E01168196004339E
:1001B00004329842F9D82146324B9942EFD32E4B64
:1001C0001A68314B9A4204D12C4B1A682F4B9A4231
:1001D00000D0FEE7274B2E4A13602E4A13602E4BA9
:1001E0000AE0194651F8082B5B6802E00020106015
:1001F00004329A42FAD30B46284A9342F1D3244B55
:100200001B6813B9234B1B6803B1FEE701F01EFE08
:1002100001A8694601F096FC214C224B1C1BA4103E
:10022000002504E01E4B53F8253098470135AC42B9
:10023000F8DC1D4C1D4B1C1BA410002504E01A4BC0
:1002400053F8253098470135AC42F8DC0198009905
:1002500001F004FE0546164C164B1C1BA41004E0CE
:10026000013C134B53F824309847002CF8DC284607
:1002700001F062FCBABADECA0000002020000020B3
:100280003003000848030008785634123254769838
:1002900024000020940000204803000858030008B0
:1002A00058030008580300085803000858030008C2
:1002B000580300085803000808B5FFF765FF00BFA2
:1002C00000BEFEE71EF0040F0CBFEFF30880EFF353
:1002D00009807146124A104700BEFEE700BEFEE7E5
:1002E0001EF0040F0CBFEFF30880EFF30980714696
:1002F0000C4A104700BEFEE71EF0040F0CBFEFF3E0
:100300000880EFF309807146074A104700BEFEE7F8
:1003100000BEFEE700BEFEE700BEFEE7704700003D
:10032000D9020008F50200080D03000800BEFEE730
:10033000801F00080000002024000020801F00080B
:100340000000001000000010240000209800002091
:08035000000000100000001085
:1003580010B5044600F0BEFE064BA3FB0030800932
:1003680000F092F84FF0FF302146002200F04AF8E2
:10037800002010BDD34D621008B50B4B1A6842F42B
:1003880000721A601A6842F480621A601A6842F4AD
:1003980080721A60032000F017F80F20FFF7D8FFCB
:1003A80001F06EFD002008BD003C0240024A1368BF
:1003B80001331360704700BF28000020014B186804
:1003C800704700BF2800002010B50446C31E042B48
:1003D80003D90A48A42101F0B9FB04F00700084A30
:1003E800D36823F4E0631B041B0C43EA002040F0AD
:1003F800BF6040F40030D06010BD00BFAC1E0008E4
:1004080000ED00E070B504460E4615460F2A03D9E4
:100418001A48BC2101F09AFB0F2E03D91748BD21B9
:1004280001F094FB164BDB68C3F30223C3F1070208
:10043800042A28BF0422191D062901D9D81E00E064
:100448000020012303FA02F2013A324002FA00F1D5
:1004580083405A1E2A400A43002C06DA04F00F048F
:100468001201D2B2074B1A5570BD1201D2B204F173
:10047800604404F5614484F8002370BDAC1E000894
:1004880000ED00E014ED00E00138B0F1807F0AD201
:10049800064B5860F021064A82F823100020986025
:1004A80007221A6070470120704700BF10E000E083
:1004B80000ED00E010B50446042805D020B1094835
:1004C8004FF4C27101F042FB042C05D1064A1368AF
:1004D80043F00403136010BD034A136823F00403B8
:1004E800136010BDAC1E000810E000E0704700BFAC
:1004F80008B5FFF7FBFF08BD2DE9F04F83B0804634
:100508000F46A24B984223D003F5806398421FD030
:1005180003F5806398421BD003F58063984217D097
:1005280003F58063984213D003F5806398420FD097
:1005380003F5806398420BD003F58063984207D097
:1005480003F58063984203D09148C52101F0FEFA73
:100558003B881BB98E48C62101F0F8FA7B68012B4D
:1005680022D9112B20D0022B1ED0122B1CD0894A45
:10057800934219D002F58012934215D002F58012E9
:10058800934211D0A2F5F81293420DD002F58012D1
:10059800934209D002F58012934205D0032B03D071
:1005A8007B48C72101F0D2FABB68022B03D97848EF
:1005B800C82101F0CBFA002428E1A1460125A54075
:1005C8003B6803EA050AAA4540F01F817B68022BB5
:1005D80001D0122B4AD13B69C3B3092B36D0ABB338
:1005E800A3B39BB393B3012B30D02FD0022B2DD0C4
:1005F8002CD02BD0032B29D0042B27D026D025D0C4
:10060800052B23D022D0092B20D0062B1ED0092B56
:100618001CD0072B1AD019D018D0082B16D015D0FB
:1006280014D0092B12D011D00A2B0FD00ED00B2BBF
:100638000CD00C2B0AD009D00D2B07D00C2B05D0D1
:100648000F2B03D05248D92101F080FAE60808366A
:1006580058F8261004F0070080000F23834021EA91
:1006680003023B698340134348F82630D8F800302A
:100678004FEA440B032606FA0BF6F64306EA030292
:100688007B6803F0030303FA0BF31343C8F8003045
:100698007B685A1E012A03D9112B01D0122B1CD1B9
:1006A800FB68032B03D93A48EC2101F04FFAD8F83C
:1006B800083006EA0302FB6803FA0BF31343C8F891
:1006C8000830D8F8043023EA05037D68C5F300151F
:1006D80005FA09F51D43C8F80450D8F80C30334022
:1006E800BE6806FA0BF61E43C8F80C607B6813F068
:1006F800805F00F08A80284B5A6C42F480425A642A
:100708005B6C03F480430193019BA308991C234A63
:1007180052F8211004F0030080000F22824021EAE1
:1007280002011A4A90453BD002F5806290452BD0D1
:1007380002F58062904525D002F5806290451FD071
:1007480002F58062904519D002F58062904513D079
:1007580002F5806290450DD002F58062904507D081
:1007680002F58062904501D108221AE0092218E0BA
:10077800072216E0062214E0052212E0042210E007
:1007880003220EE002220CE001220AE000000240EF
:10079800E01E000800001110003802400038014037
:1007A800002282400A4302331B4941F823201B4B95
:1007B8001A686FEA0A0303EA0201786810F4803FB6
:1007C80001D04AEA0201154A1160526803EA02019F
:1007D800786810F4003F01D04AEA02010F4A5160DC
:1007E800926803EA0201786810F4801F01D04AEA8F
:1007F80002010A4A9160D2681340796811F4001F17
:1008080001D04AEA0203054AD36001340F2C7FF66F
:10081800D4AE03B0BDE8F08F00380140003C014081
:1008280030B583B0044603680F2B04D9B24840F2B0
:10083800171101F08BF9236813F0010F5FD063687B
:10084800012B06D9052B04D0AB484FF48E7101F06B
:100858007DF9AA4B9B6803F00C03042B0AD0A74B25
:100868009B6803F00C03082B0DD1A44B5B6813F4B1
:10087800800F08D0A14B1B6813F4003F3FD063687A
:10088800002B3CD1FBE100229D4B1A70FFF796FD2F
:10089800054607E0FFF792FD401B41F28833984276
:1008A80000F2EF81954B1B6813F4003FF2D12279D7
:1008B800934B1A7063688BB1FFF780FD054607E01C
:1008C800FFF77CFD401B41F28833984200F2DB8140
:1008D8008A4B1B6813F4003FF2D010E0FFF76EFD5F
:1008E800054607E0FFF76AFD401B41F2883398424E
:1008F80000F2CB81814B1B6813F4003FF2D12368CF
:1009080013F0020F6DD0E368012B04D97A4840F246
:100918005D1101F01BF923691F2B04D976484FF4A8
:10092800AF7101F013F9754B9B6813F00C0F0AD0E7
:10093800724B9B6803F00C03082B1CD16F4B5B6850
:1009480013F4800F17D16D4B1B6813F0020F03D0FF
:10095800E368012B40F09B816848026822F0F801A7
:100968002269F82393FAA3F3B3FA83F3DBB29A402C
:100978000A43026035E0E3680BB30122614B1A6059
:10098800FFF71CFD054605E0FFF718FD401B64282E
:1009980000F27F81594B1B6813F0020FF4D05748BF
:1009A800036823F0F8012269F82393FAA3F3B3FA52
:1009B80083F3DBB29A4041EA0203036011E00022AC
:1009C800504B1A60FFF7FAFC054605E0FFF7F6FC06
:1009D800401B642800F25F81484B1B6813F0020F2C
:1009E800F4D1236813F0080F2ED06369012B04D9C2
:1009F80041484FF4CF7101F0A9F8636993B101221E
:100A0800414B1A60FFF7DAFC054605E0FFF7D6FC14
:100A1800401B642800F24181384B5B6F13F0020FD2
:100A2800F4D011E00022384B1A60FFF7C7FC0546E6
:100A380005E0FFF7C3FC401B642800F230812F4B10
:100A48005B6F13F0020FF4D1236813F0040F72D018
:100A5800A368012B06D9052B04D027484FF4E4716D
:100A680001F074F8254B1A6C42F080521A641B6C22
:100A780003F080530193019B244A136843F4807365
:100A88001360FFF79BFC054605E0FFF797FC401B4A
:100A9800642800F206811D4B1B6813F4807FF4D094
:100AA80000221B4B1A70FFF789FC054607E0FFF789
:100AB80085FC401B41F28833984200F2F4800F4BCA
:100AC8001B6F13F0020FF2D1227A114B1A70A36830
:100AD80003B3FFF773FC054607E0FFF76FFC401B05
:100AE80041F28833984200F2E080044B1B6F13F008
:100AF800020FF2D01FE000BF201F0008003802409C
:100B08000238024000004742800E47420070004011
:100B180070380240FFF752FC054607E0FFF74EFC2D
:100B2800401B41F28833984200F2C180664B1B6F2C
:100B380013F0020FF2D1A369022B04D963484FF4D2
:100B4800037101F003F8A369002B00F0B2805E4A3C
:100B5800926802F00C02082A00F0AD80022B7BD1CB
:100B6800E3693BB1B3F5800F04D0584840F2152132
:100B780000F0ECFF236A3F2B04D9544840F21621B9
:100B880000F0E4FF636AC03BF02B04D94F4840F201
:100B9800172100F0DBFFA36A022B0AD0042B08D030
:100BA800062B06D0082B04D048484FF4067100F0F5
:100BB800CDFFE36A043B0B2B04D9444840F21921CA
:100BC80000F0C4FF0022424B1A60FFF7F7FB05460E
:100BD80004E0FFF7F3FB401B64286ED83A4B1B6810
:100BE80013F0007FF5D1E169236A1943626A47F679
:100BF800C07393FAA3F3B3FA83F3DBB29A401143B9
:100C0800A36A5B08013B4FF4403292FAA2F2B2FAAF
:100C180082F2D2B293400B43E16A4FF0706292FACB
:100C2800A2F2B2FA82F2D2B201FA02F21343264ACF
:100C380053600122264B1A60FFF7C0FB044604E00C
:100C4800FFF7BCFB001B642839D81F4B1B6813F047
:100C5800007FF5D0002035E000221D4B1A60FFF719
:100C6800ADFB044604E0FFF7A9FB001B642828D865
:100C7800154B1B6813F0007FF5D1002022E00120FE
:100C880020E003201EE003201CE003201AE00120DE
:100C980018E0032016E0032014E0032012E00320EC
:100CA80010E003200EE003200CE003200AE00320FC
:100CB80008E0002006E0012004E0032002E0032011
:100CC80000E0032003B030BD00380240201F0008B8
:100CD8006000474270B504460D460368013B0E2B81
:100CE80004D995484FF41F7100F030FF072D04D93F
:100CF800914840F27D2100F029FF904B1B6803F0DA
:100D08000F03AB4280F09880EAB28C4B1A701B68D4
:100D180003F00F03AB4240F06B81236813F0020F1E
:100D28001DD0A368A3B1802B12D0902B10D0A02B7C
:100D38000ED0B02B0CD0C02B0AD0D02B08D0E02B73
:100D480006D0F02B04D07C4840F2932100F0FEFE40
:100D58007B498B6823F0F002A36813438B602368F8
:100D680013F0010F00F002816368032B04D9724865
:100D780040F29A2100F0EAFE6268012A05D1704B20
:100D88001B6813F4003F0FD134E1931E012B05D8E3
:100D98006B4B1B6813F0007F06D12DE1684B1B6875
:100DA80013F0020F00F02A8165498B6823F00303D2
:100DB80013438B60FFF702FB05466368012B0FD1D5
:100DC80007E0FFF7FBFA401B41F28833984200F234
:100DD80017815B4B9B6803F00C03042BF1D1C5E032
:100DE800022B0FD107E0FFF7E9FA401B41F28833E5
:100DF800984200F20781524B9B6803F00C03082BC2
:100E0800F1D1B3E0032B11D14D4B9B68FFF7D6FA14
:100E1800401B41F288339842F6D9F5E0FFF7CEFA45
:100E2800401B41F28833984200F2F080444B9B68A3
:100E380013F00C0FF2D199E0236813F0020F1DD0C4
:100E4800A368A3B1802B12D0902B10D0A02B0ED06A
:100E5800B02B0CD0C02B0AD0D02B08D0E02B06D05A
:100E6800F02B04D0344840F2ED2100F06FFE3449F5
:100E78008B6823F0F002A36813438B60236813F098
:100E8800010F6BD06368032B04D92B484FF43D71D5
:100E980000F05CFE6268012A05D1294B1B6813F437
:100EA800003F0FD1B4E0931E012B05D8244B1B68DB
:100EB80013F0007F06D1ADE0214B1B6813F0020F41
:100EC80000F0AA801E498B6823F0030313438B604C
:100ED800FFF774FA06466368012B0FD107E0FFF7A6
:100EE8006DFA801B41F28833984200F29780144BC8
:100EF8009B6803F00C03042BF1D12FE0022B0FD1D8
:100F080007E0FFF75BFA801B41F28833984200F252
:100F180087800B4B9B6803F00C03082BF1D11DE075
:100F2800032B16D1064B9B68FFF748FA801B41F24A
:100F380088339842F6D975E0201F0008003C02402B
:100F480000380240FFF73AFA801B41F28833984292
:100F58006AD8374B9B6813F00C0FF3D1EAB2354BC4
:100F68001A701B6803F00F03AB425FD1236813F0BC
:100F7800040F19D0E36883B1B3F5805F0DD0B3F5E2
:100F8800A05F0AD0B3F5C05F07D0B3F5E05F04D027
:100F9800294840F24E3100F0D9FD25498B6823F4E9
:100FA800E052E36813438B60236813F0080F1AD0EC
:100FB800236983B1B3F5805F0DD0B3F5A05F0AD084
:100FC800B3F5C05F07D0B3F5E05F04D01A4840F22C
:100FD800553100F0BBFD164A936823F4604321693C
:100FE80043EAC10393600F20FFF7B2F9002070BDF8
:100FF800012070BD012070BD012070BD012070BDB1
:10100800032070BD032070BD032070BD032070BD98
:10101800012070BD012070BD012070BD032070BD8E
:10102800032070BD032070BD032070BD012070BD7A
:1010380000380240003C0240201F0008224B9B68F9
:1010480003F00C03042B3DD0082B01D01F48704738
:101058001D4B586800F03F005B6813F4800F10D0F8
:101068001B4BB3FBF0F3184A506847F6C0721040A8
:1010780092FAA2F2B2FA82F2D2B2D04000FB03F3A3
:101088000FE0124BB3FBF0F30F4A506847F6C072FB
:10109800104092FAA2F2B2FA82F2D2B2D04000FB29
:1010A80003F3094A506800F440304FF4403292FA92
:1010B800A2F2B2FA82F2D2B2D04001304000B3FBC1
:1010C800F0F0704702487047003802400024F400EE
:1010D80000127A0008B5FFF7B1FF094B9B6803F0CF
:1010E800F002F02393FAA3F3B3FA83F3DBB222FA04
:1010F80003F3044AD35CD840034B186008BD00BF13
:1011080000380240101F00081C00002030B4036A99
:1011180023F001030362036A4468826922F07302C0
:101128000D682A4323F002038D682B430F4DA84214
:1011380005D005F58065A84203D1012502E0012507
:1011480000E000255DB123F00803CD682B4323F0B0
:10115800040324F440744D692C438D692C43446086
:1011680082614A684263036230BC704700000140F4
:101178002DE9F04104460E46036A23F480730362A6
:10118800056AD0F80480C76927F073030F681F4306
:1011980025F400738D6843EA0525204B984205D055
:1011A80003F58063984203D1012302E0012300E0A4
:1011B80000235BB3F36833B1082B04D0184841F21D
:1011C800283100F0C3FCB369B3F5007F05D023B123
:1011D800134841F2293100F0B9FC7369B3F5807FF7
:1011E80005D023B10E4841F22A3100F0AFFC25F4B6
:1011F8000065F36845EA032525F4806528F440581E
:10120800736948EA0318B36948EA0318C4F8048004
:10121800E7617368E3632562BDE8F081000001407F
:10122800501F00082DE9F04104460F46036A23F4D5
:1012380080530362056AD0F80480C66926F4E64341
:101248000E6843EA062625F400538D6843EA0535FF
:10125800114B984205D003F58063984203D10123CE
:1012680002E0012300E0002373B17B69B3F5807FBE
:1012780005D023B1094841F26E3100F067FC28F42B
:1012880080487B6948EA8318C4F80480E6617B6873
:1012980023642562BDE8F08100000140501F00086A
:1012A800704700BF704700BF704700BF704700BF5E
:1012B800704700BF704700BF10B5044603681A693D
:1012C80012F0020F17D0DA6812F0020F13D06FF085
:1012D80002021A610123037603689B6913F0030F66
:1012E80002D0FFF7E3FF04E0FFF7DEFF2046FFF739
:1012F800DFFF0023237623681A6912F0040F19D040
:10130800DA6812F0040F15D06FF004021A61022394
:10131800237623689B6913F4407F03D02046FFF7A8
:10132800C5FF05E02046FFF7BFFF2046FFF7C0FFD7
:101338000023237623681A6912F0080F19D0DA6897
:1013480012F0080F15D06FF008021A6104232376F3
:101358002368DB6913F0030F03D02046FFF7A6FFCD
:1013680005E02046FFF7A0FF2046FFF7A1FF002376
:10137800237623681A6912F0100F19D0DA6812F070
:10138800100F15D06FF010021A6108232376236816
:10139800DB6913F4407F03D02046FFF787FF05E0A1
:1013A8002046FFF781FF2046FFF782FF00232376C0
:1013B80023681A6912F0010F09D0DA6812F0010FD8
:1013C80005D06FF001021A612046FFF76BFF236812
:1013D8001A6912F0800F09D0DA6812F0800F05D070
:1013E8006FF080021A61204600F0A0FB23681A699A
:1013F80012F0400F09D0DA6812F0400F05D06FF0F4
:1014080040021A612046FFF755FF23681A6912F057
:10141800200F09D0DA6812F0200F05D06FF02002F3
:101428001A61204600F080FB10BD00BF0368454AE2
:10143800904214D0B0F1804F13D0A2F57C42904274
:1014480011D002F5806290420FD002F5806290427E
:101458000DD002F5784290420BD101220AE0012218
:1014680008E0012206E0012204E0012202E0012254
:1014780000E000221AB123F070034A681343314A8E
:1014880090422CD0B0F1804F2BD0A2F57C429042F4
:1014980029D002F58062904227D002F580629042FE
:1014A80025D002F57842904223D002F5705290423E
:1014B80021D002F5806290421FD002F580629042EE
:1014C8001DD0A2F5983290421BD002F5806290425E
:1014D80019D002F58062904217D1012216E001224C
:1014E80014E0012212E0012210E001220EE00122A4
:1014F8000CE001220AE0012208E0012206E00122B4
:1015080004E0012202E0012200E000221AB123F4E3
:101518004073CA68134303608B68C3620B688362B5
:10152800084B984205D003F58063984203D1012304
:1015380002E0012300E000230BB10B6903630123E0
:101548004361704700000140002871D010B504467F
:101558000368384A934237D0B3F1804F34D0A2F5AC
:101568007C42934230D002F5806293422CD002F53F
:101578008062934228D002F58062934224D002F51B
:101588008062934220D002F5704293421CD002F54B
:101598007052934218D002F58062934214D002F53B
:1015A8008062934210D0A2F5983293420CD002F593
:1015B8008062934208D002F58062934204D01E48AC
:1015C80040F2014100F0C2FAA36863B1102B0AD0BF
:1015D800202B08D0402B06D0602B04D0164840F2B0
:1015E800024100F0B3FA236953B1B3F5807F07D005
:1015F800B3F5007F04D0104840F2034100F0A6FA8A
:1016080094F8393013F0FF0F05D1002384F83830EF
:101618002046FFF745FE022384F83930214651F869
:10162800040BFFF703FF012384F83930002010BDB5
:101638000120704700000140501F00082DE9F041CB
:1016480004460E46036A23F010030362056AD0F8C5
:101658000480876927F4E6430F6843EA072725F0E3
:1016680020038D6843EA0515204B984205D003F501
:101678008063984203D1012302E0012300E00023A4
:101688005BB3F36833B1082B04D0194841F2142135
:1016980000F05CFAB369B3F5007F05D023B11448B4
:1016A80041F2152100F052FA7369B3F5807F05D035
:1016B80023B10F4841F2162100F048FA25F08005C1
:1016C800F36845EA031525F0400528F44068736976
:1016D80048EA8308B36948EA8308C4F80480A76124
:1016E8007368A3632562BDE8F08100BF0000014074
:1016F800501F000890F83830012B00F04B8170B56E
:1017080016460D460446012380F8383062B1042A93
:101718000AD0082A08D00C2A06D0182A04D09E48D5
:1017280040F66C4100F012FA2B68602B06D0702B43
:1017380004D0994840F66D4100F008FAAB6833B11F
:10174800022B04D0944840F66E4100F0FFF9EB6894
:1017580033B1082B04D0904840F66F4100F0F6F9F9
:10176800AB69B3F5007F05D023B18B484FF44761CF
:1017780000F0ECF96B69B3F5807F05D023B186489A
:1017880040F6714100F0E2F92B6933B1042B04D023
:10179800814840F6724100F0D9F9022384F83930C3
:1017A8000C2E00F2F080DFE816F00D00EE00EE00DF
:1017B800EE005500EE00EE00EE008E00EE00EE00AA
:1017C800EE00BE002368754A93422FD0B3F1804FD4
:1017D8002CD0A2F57C42934228D002F58062934235
:1017E80024D002F58062934220D002F578429342D9
:1017F8001CD002F57052934218D002F580629342D1
:1018080014D002F58062934210D0A2F59832934228
:101818000CD002F58062934208D002F580629342B0
:1018280004D05D4840F67A4100F090F920682946D6
:10183800FFF76CFC2268936943F008039361226800
:10184800936923F004039361226891692B690B4320
:10185800936198E02368514A93421FD0B3F1804FB7
:101868001CD0A2F57C42934218D002F580629342C4
:1018780014D002F58062934210D002F57842934268
:101888000CD002F57052934208D0A2F594329342DC
:1018980004D0414840F6894100F058F920682946AB
:1018A800FFF7CCFE2268936943F4006393612268D2
:1018B800936923F48063936122689369296943EAF1
:1018C800012393615FE02368344A934217D0B3F150
:1018D800804F14D0A2F57C42934210D002F580626A
:1018E80093420CD002F58062934208D002F5784208
:1018F800934204D0284840F6984100F027F9206820
:101908002946FFF735FC2268D36943F00803D36101
:101918002268D36923F00403D3612268D1692B6953
:101928000B43D3612FE023681C4A934217D0B3F1CD
:10193800804F14D0A2F57C42934210D002F5806209
:1019480093420CD002F58062934208D002F57842A7
:10195800934204D0104840F6A74100F0F7F82068F9
:101968002946FFF75FFC2268D36943F40063D3611B
:101978002268D36923F48063D3612268D369296913
:1019880043EA0123D361012384F83930002084F825
:10199800380070BD02207047501F00080000014049
:1019A80070B504460E461546254B98422FD0B0F127
:1019B800804F2CD0A3F57C43984228D003F5806350
:1019C800984224D003F58063984220D003F57843E9
:1019D80098421CD003F57053984218D003F58063E1
:1019E800984214D003F58063984210D0A3F5983339
:1019F80098420CD003F58063984208D003F58063C1
:101A0800984204D00F4841F2992100F09FF866B13E
:101A1800042E0AD0082E08D00C2E06D0182E04D07A
:101A2800084841F29A2100F091F80123B340226A54
:101A380022EA03032362236AB5401D43256270BD71
:101A480000000140501F000838B504460D460368E1
:101A58002D4A934212D0B3F1804F0FD0A2F57C42A9
:101A680093420BD002F58062934207D002F5806260
:101A7800934203D002F57842934206D135B3042D40
:101A880024D0082D22D00C2D20D0204A934202D1F8
:101A9800E5B1042D1AD01E4A934200D1B5B11D4AB2
:101AA800934200D195B11C4A934202D175B1042DDD
:101AB8000CD01A4A934200D145B1194A934200D139
:101AC80025B1184840F2694100F040F820682946DD
:101AD8000122FFF765FF23680B4A934205D002F500
:101AE8008062934203D1012202E0012200E0002239
:101AF8001AB15A6C42F400425A642268136843F0DF
:101B080001031360002038BD00000140004001407F
:101B1800004401400048014000180040001C0040FB
:101B280000200040501F0008704700BF704700BFEA
:101B3800FEE700BF08B50120FFF7FAFF01230360A5
:101B4800014B0B60704700BF0400002008B5FFF789
:101B5800F1FF00BF08B500F001F808BD0C4B1A688A
:101B680042F001021A60002199601A6822F084721A
:101B780022F480321A60074A5A601A6822F48022D6
:101B88001A60D9604FF00062034B9A60704700BF3B
:101B9800003802401030002400ED00E0234B9B6821
:101BA80003F00C03042B07D0082B09D0002B2DD1F0
:101BB8001F4A204B1A602CE01F4A1E4B1A6028E06F
:101BC8001A4B5A685B6803F03F0312F4800F09D080
:101BD800194AB2FBF3F2154B5B68C3F3881303FB96
:101BE80002F208E0124AB2FBF3F3104A5168C1F35B
:101BF800881101FB03F20D4B5B68C3F3014301330A
:101C08005B00B2FBF3F30B4A136002E0084A094B8E
:101C18001A60064B9B68C3F30313084AD25CD2B21E
:101C280004490B68D3400B60704700BF003802407E
:101C38000024F4001C00002000127A000C00002090
:101C4800F0B583B007461A4B1A6C42F004021A64C6
:101C58001B6C03F004030193019B164C002565607F
:101C6800A560154E26606823E360256165612046FE
:101C7800FFF76AFC114960230B604D61013F4F601B
:101C88008D60CD608D610D6120460822FFF732FD21
:101C980020460821FFF7D8FE336843F081033360FC
:101CA80001237361F36843F00903F36003B0F0BDE7
:101CB800003802403C000020000800407800002066
:101CC80008B50720FEF780FB1E2000210A46FEF714
:101CD80099FB4FF08042014B1A6008BD00E100E01B
:101CE80030B587B0124B1A6B42F008021A631B6BAF
:101CF80003F008030093009B4FF440430193022331
:101D0800029300220392032504950593094C20466B
:101D180001A9FEF7F1FB4FF440530193012302930D
:101D280003930495204601A9FEF7E6FB07B030BDF2
:101D380000380240000C024070B594B01F4B1A6C7A
:101D480042F080521A641B6C03F080530193019B8C
:101D58001B4B1A6842F480421A601B6803F48043E4
:101D68000293029B0224089401230B9310230C93E3
:101D78000E9400260F9610934FF4A8731193042520
:101D88001295139508A8FEF74BFD052303930494B9
:101D980005964FF480530693079603A82146FEF74D
:101DA80099FFFFF797F9074BA3FB00308009FEF76F
:101DB8006BFB2846FEF77EFB14B070BD003802406E
:101DC80000700040D34D62100138014BD863704752
:101DD8000008004008B54FF08042154BC3F8802139
:101DE8001448FFF769FA144B1B68062B05D100222B
:101DF800114B1A600122114B1A60104B1B6873B10A
:101E08000F4A136801331360322B04D100230B4AA5
:101E180013600B4A13600020FFF7D6FF08BD43206C
:101E2800FFF7D2FF044A13680133136008BD00BFEF
:101E380000E100E03C0000203800002034000020D1
:101E48003000002008B5FEF797FAFFF775FFFFF797
:101E5800A5FE08BD08B5FFF781FEFFF76DFF00F08E
:101E68000FF8FFF73DFF4320FFF7EAFEFFF728FFD3
:101E7800024BD3F80021D3F80032F9E700E100E083
:101E880008B50320FEF7A0FA4FF0FF3000210A46FC
:101E9800FEF7B8FA08BD00BF08B5FEF787FAFEF7E7
:101EA80027FB08BD2E2E2F73797374656D2F7372FF
:101EB800632F73746D333266342D68616C2F7374BD
:101EC8006D3332663478785F68616C5F636F727403
:101ED80065782E63000000002E2E2F7379737465C9
:101EE8006D2F7372632F73746D333266342D68618E
:101EF8006C2F73746D3332663478785F68616C5F09
:101F08006770696F2E63000000000000010203047F
:101F180001020304060708092E2E2F7379737465CE
:101F28006D2F7372632F73746D333266342D68614D
:101F38006C2F73746D3332663478785F68616C5FC8
:101F48007263632E630000002E2E2F7379737465FD
:101F58006D2F7372632F73746D333266342D68611D
:101F68006C2F73746D3332663478785F68616C5F98
:081F780074696D2E6300000086
:101F8000785634122C0000200000000000000000F1
:101F90000000000001020304060708090024F40001
:041FA00032547698A9
:040000050800018965
:00000001FF
